:100000000C9449010C9471010C9471010C94E70358
:100010000C94E7030C94E7030C9471010C947101A8
:100020000C9471010C9471010C9471010C94710188
:100030000C9471010C9471010C9471010C94710178
:100040000C94140C0C9471010C94500B0C942A0B0E
:100050000C9471010C9471010C9471010C94710158
:100060000C945E0C0C947101AF06B406B906BE0682
:10007000C306C806CD066B0782079907B007C707F6
:10008000DE07F50741542B434D47533D2200446F93
:100090006E27742073656E64206D65737361676588
:1000A000206C6F6E676572207468616E2031363027
:1000B00020636861726163746572730041542B43FD
:1000C0004950534855540041542B435042533D220C
:1000D000534D220041542B434D47463D310041547E
:1000E0002B434D45453D300041542B434C49503D39
:1000F000310041542B4950523D004552524F523A23
:100100002053494D39303020646F65736E27742059
:10011000616E737765722E20436865636B20706F24
:1001200077657220616E642073657269616C2070FE
:10013000696E7320696E2047534D2E6370700041C5
:10014000542B4950523D393630300D003131353263
:1001500030300041542B4950523D393630300D007B
:1001600035373630300041542B4950523D39363006
:10017000300D0033383430300041542B4950523D5B
:10018000393630300D0031393230300041542B498E
:1001900050523D393630300D003936303000415440
:1001A0002B4950523D393630300D00343830300054
:1001B00041542B4950523D393630300D00323430E5
:1001C000300041542B4950523D393630300D00310A
:1001D00032303000547279696E6720746F20666F18
:1001E0007263652074686520626175642D72617444
:1001F0006520746F20393630300A0041542B495045
:10020000523D0044423A464F554E442050524556C6
:100210002042520044423A4155544F2042415544F5
:1002200020524154450044423A434F5252454354B0
:1002300020425200000000080002010000030407F1
:100240000000000000000000000000002500280061
:100250002B0000000000240027002A0000000000FE
:1002600023002600290004040404040404040202F8
:100270000202020203030303030301020408102025
:1002800040800102040810200102040810208C0F95
:10029000AD0E11241FBECFEFD8E0DEBFCDBF25E0ED
:1002A000A4E7B2E001C01D92A63BB207E1F712E05D
:1002B000A0E0B1E0E0EDF2E202C005900D92A437BB
:1002C000B107D9F711E0C8E4D1E004C02197FE01DD
:1002D0000E942211C734D107C9F70E94C10E0C94A5
:1002E0005B110C94000080915A0390E020915B0315
:1002F000821B9109089520915603309157032817C6
:10030000390771F49091550380915403981741F087
:10031000E0915503F0E0EC5EFC4F808190E00895A1
:100320008FEF9FEF089508951F93CF93DF93DC0124
:100330005C962D913C915D972115310539F481E052
:1003400090E013969C938E9312973DC05196ED9139
:10035000FC91529750969C915097892F80951FB78A
:100360005E964C915E9741FB772770F941FD609551
:10037000F8944081772311F0492B01C04823408332
:10038000E9012197F1F748E0508160FF02C0592B45
:1003900001C058235083E9012197F1F76695415038
:1003A00099F7772321F090818923808303C080818E
:1003B000982B90831FBF5C968D919C915D970197C0
:1003C000F1F721E030E0C901DF91CF911F9108954D
:1003D00020915603309157032817390771F4809103
:1003E00054032091550390E0805C9F4F821B91093C
:1003F00060E470E00E94CD10089580E090E00895E0
:10040000209156033091570328173907B9F490917A
:10041000550380915403981789F0E0915503F0E05B
:10042000EC5EFC4F80812091550330E02F5F3F4F01
:100430002F7333272093550390E008958FEF9FEF9C
:100440000895E0915603F0915703E817F90769F40E
:10045000A389B4899C918589809589238C93109276
:1004600057031092560381E0089580E00895CF93DA
:10047000DF93EC019A01AB011B8E1A8E198E188E38
:100480001F8A1E8A60E079E08DE390E00E940311EC
:10049000F9012430310518F0C901039702C081E049
:1004A00090E09D8F8C8F6C85663108F069C0C90122
:1004B000969587958431910510F0439702C081E0AD
:1004C00090E09F8B8E8B369718F0C901059702C07C
:1004D00081E090E0998F888FC901880F991F280FBC
:1004E000391F36952795369527952D30310518F00B
:1004F0002C50310902C021E030E03B8F2A8F9091CF
:100500006800683050F021E06E3008F420E081E0AF
:1005100001C0880F2A95EAF701C084E0892B8093F7
:1005200068009C85983038F09E3040F0963148F055
:1005300020E030E008C02DE630E005C02BE630E0DA
:1005400002C02CE630E03C8B2B8B983030F481E0FD
:1005500001C0880F9A95EAF70EC0292F30E09E302F
:1005600018F42850310902C02E50310981E001C031
:10057000880F2A95EAF78D8B8C8D9D8D0197F1F769
:100580008A8D9B8D892BE1F08091560390915703C2
:100590008C179D07A9F0009711F00E9421028E8D03
:1005A0008E7F8E8F1092540310925503D093570371
:1005B000C0935603EB89FC8990818D89892B8083B8
:1005C000DF91CF910895089580E090E00895DC01D7
:1005D000ED91FC91369720813181820F931F8452D7
:1005E0009F4F0E9400020895CF92DF92FF920F93D7
:1005F0001F93CF93DF936B01EA0100E010E00C172B
:100600001D07CCF480EA94E00E94E702F82E181649
:100610007CF4E091F703F091F8030190F081E02D74
:10062000682F87EF93E00995F601E00FF11FF08244
:100630000F5F1F4FE4CFCE01D7FF02C080E090E0F4
:10064000DF91CF911F910F91FF90DF90CF90089590
:10065000CF93DF9300D0CDB7DEB7CB01642F4983B2
:100660005A830E948C0D4981842F5A81952F0F90B7
:100670000F90DF91CF910895CF93DF931F92CDB765
:10068000DEB7698361E0CE0101960E948C0D81E0A6
:1006900090E00F90DF91CF9108950F931F93CF9328
:1006A000DF9300D0CDB7DEB704E712E090915A0394
:1006B00080915B03981741F084E994E00E94B10AAD
:1006C000F80181938F01F2CF64E772E087EF93E046
:1006D0000E94000BE4E7F2E001900020E9F7319777
:1006E000E457F240E03AF10530F06EE870E087EF51
:1006F00093E00E94140B8AE189831A82E091A0049E
:10070000F091A10436978081918164E870E084586B
:100710009A4F0E94C70AE091A004F091A104369775
:100720008081918160E071E084589A4F0E94280B8B
:10073000E091A004F091A1043697808191816EE24E
:1007400072E084589A4F0E94000B69E571E087EFD0
:1007500093E00E94000B4EE651E064EF71E088EEFA
:1007600093E00E94750E823049F568E671E087EFEC
:1007700093E00E94000BE091A004F091A104369751
:100780008081918164E772E084589A4F0E94280B1F
:10079000E091A004F091A104369780819181BE017F
:1007A0006F5F7F4F84589A4F0E94000B40E751E0E3
:1007B00068E873E188E59BE10E94750E10926F0571
:1007C0000F900F90DF91CF911F910F9108951F927D
:1007D0000F920FB60F9211242F933F934F935F9375
:1007E0006F937F938F939F93AF93BF93EF93FF93F9
:1007F000E0915603F0915703309709F451C0968D5C
:10080000A685B785858591FF04C09C91892329F42D
:1008100047C09C91892309F043C0A389B4899C9166
:100820008589809589238C93868997890197F1F72B
:10083000608D718DA685B785558538E020E0CB01A8
:100840000197F1F7822F90E095958795282F4C918D
:10085000452309F02068315091F7868D81FD209560
:100860008091540390E001968F739927309155033E
:10087000381749F0A0915403B0E0AC5EBC4F2C9304
:100880008093540303C0868D8160868F828D938D03
:100890000197F1F7A389B4899C918589892B8C9361
:1008A000FF91EF91BF91AF919F918F917F916F9148
:1008B0005F914F913F912F910F900FBE0F901F901E
:1008C00018950F931F93CF93DF93EC018B01FC01DD
:1008D000EF52FF4F808166E771E08823E9F087EFF0
:1008E00093E00E94280BB80187EF93E00E94000B71
:1008F0006CE771E087EF93E00E94280B2296BE011F
:1009000087EF93E00E94000BB801CE010E944111D5
:1009100021E0892B89F40FC087EF93E00E94280B18
:10092000B80187EF93E00E94000B62E871E087EF67
:1009300093E00E94280B20E0822FDF91CF911F913E
:100940000F9108958F929F92AF92BF92CF92DF92B4
:10095000EF92FF920F931F93CF93DF93EC017C01F3
:1009600082EDE80EF11CF7018081811133C0CE01C8
:1009700084529F4F0E94E8018E0109521F4F892B1C
:10098000F9F40E94080CF801008111812281338161
:10099000AB01BC01401B510B620B730B3497808180
:1009A0009181A0E0B0E0481759076A077B0790F0F3
:1009B00032978081FE01E80FF11D128214E00BC016
:1009C0000E94080CF801608371838283938381E025
:1009D000F701808310E0F7018081813009F05CC06D
:1009E0007E01FCEDEF0EF11CC7010E94E801082F0B
:1009F000882349F00E94080CFE01E952FF4F6083F2
:100A00007183828393836E0181EDC80ED11C5E01D8
:100A1000EFECAE0EB11C002301F10150F601808114
:100A2000883CB8F4F50180809180C7010E940002E3
:100A3000F4018083F5018081918101969183808307
:100A4000F60180818F5F8083FE01E80FF11D128225
:100A5000E2CFC7010E940002DECF0E94080CFE0117
:100A6000E952FF4FC080D180E280F380AB01BC012E
:100A70004C195D096E097F09329780819181A0E050
:100A8000B0E0481759076A077B0730F03497808138
:100A9000C80FD11D1A8211E0812FDF91CF911F91D4
:100AA0000F91FF90EF90DF90CF90BF90AF909F900D
:100AB0008F900895CF93DF93EC01FC01EE52FF4F2E
:100AC00010823196718360833296518340830E94F5
:100AD000080CFE01E952FF4F608371838283938388
:100AE0001A823897CE0102969183808332961082C3
:100AF000CE010E94A2048823D9F3DF91CF910895FB
:100B00004F925F926F927F928F929F92AF92BF921D
:100B1000CF92DF92EF92FF920F931F93CF93DF93C9
:100B20001F92CDB7DEB72C016B015A014901F12CA0
:100B30002FEF3C018CED680E711CFE14F9F0FF20C4
:100B400031F064EF71E080E090E00E94CE0BB601DE
:100B5000C3010E94000BA401B501C2010E945A0505
:100B6000813041F4B801C2010E946104811105C0C5
:100B700020E001C02FEFF394E0CF21E048E853E1FB
:100B800068EE73E0C20129830E945A052981822FF1
:100B90000F90DF91CF911F910F91FF90EF90DF9019
:100BA000CF90BF90AF909F908F907F906F905F900D
:100BB0004F9008952F923F924F925F926F927F9243
:100BC0008F929F92AF92BF92CF92DF92EF92FF925D
:100BD0000F931F93CF93DF93CDB7DEB727970FB651
:100BE000F894DEBF0FBECDBF6C012A013B01411559
:100BF000524C6140710561F466E971E087EF93E062
:100C00000E94000BF0E84F2EF5E25F2E612C712C54
:100C100046019DEC890E911C81E0F4018083C601A0
:100C200084529F4F9F838E83B301A2010E9437029B
:100C3000160192E0290E311CF601E153FF4FFB83B0
:100C4000EA8331822082C60185539F4F9D838C8326
:100C500081E090E0EC81FD8191838083E3E0AE2E22
:100C6000B12C75E0E72E05E312E024E630E044EF16
:100C700051E065EE71E0C6010E9480058F3FD9F416
:100C80006CE372E087EF93E00E94000B61E088E084
:100C90000E94820B60EB74E080E090E00E94CE0B3B
:100CA00060E088E00E94820B60E177E280E090E003
:100CB0000E94CE0B06C067E472E087EF93E00E94CB
:100CC000000B48EE53E068EE73E0C6010E945A053F
:100CD000F1E0AF1AB10829F665E0E62E05E312E06F
:100CE00024E630E044EF51E065EE71E0C6010E9479
:100CF0008005813051F466E272E087EF93E00E9454
:100D0000140BFF24F394198203C0F12C81E0898332
:100D100055E0E52E05E312E024E630E044EF51E033
:100D200065EE71E0C6010E9480058111A6C0F11038
:100D30007EC264E172E087EF93E00E94140BA12C65
:100D4000B12CF5013197E730F10520F4EC5CFF4F51
:100D50000C94221140EB54E060E070E022C040E6C9
:100D600059E060E070E01DC040EC52E160E070E0EE
:100D700018C040E855E260E070E013C040E05BE47A
:100D800060E070E00EC040E056E960E070E009C04D
:100D900040E051EE60E070E004C040E052EC61E001
:100DA00070E08E819F810E94370264E670E080E0EF
:100DB00090E00E94CE0B45E0E42E05E312E024E62D
:100DC00030E044EF51E065EE71E0C6010E9480051D
:100DD0008130E1F563E072E087EF93E00E94140B4D
:100DE0006BEF71E08E819F810E94C70AB301A2015F
:100DF0008E819F810E94B40D68EE71E08E819F818B
:100E00000E94280B64EF71E080E090E00E94CE0B1E
:100E1000B301A2018E819F810E94370264E670E0D7
:100E200080E090E00E94CE0B24E630E044EF51E0F9
:100E300065EE71E0C6010E9480058130B1F46AEE72
:100E400071E087EF93E00E94000B0FC063EF71E049
:100E500087EF93E00E94000B9FEFA91AB90AE8E020
:100E6000AE16B10409F06DCF02C0FF24F394F40173
:100E70001082EA81FB8131822082F981FF2309F40B
:100E80001FC1F1101DC164ED71E087EF93E00E9476
:100E9000140BA12CB12CF5013197E730F10520F4AA
:100EA000E55CFF4F0C94221140EB54E060E070E0F1
:100EB0008E819F810E94370268EE73E080E090E0AF
:100EC0000E94CE0B6FEC71E087EF93E00E94140B51
:100ED00062EC71E0A0C040E659E060E070E08E8115
:100EE0009F810E94370268EE73E080E090E00E94EC
:100EF000CE0B6DEB71E087EF93E00E94140B60EB7B
:100F000071E089C040EC52E160E070E08E819F8129
:100F10000E94370268EE73E080E090E00E94CE0B02
:100F20006BEA71E087EF93E00E94140B6EE971E0C9
:100F300072C040E855E260E070E08E819F810E94BF
:100F4000370268EE73E080E090E00E94CE0B69E922
:100F500071E087EF93E00E94140B6CE871E05BC0D6
:100F600040E05BE460E070E08E819F810E94370288
:100F700068EE73E080E090E00E94CE0B66E871E0DE
:100F800087EF93E00E94140B69E771E044C040E0F2
:100F900056E960E070E08E819F810E94370268EE22
:100FA00073E080E090E00E94CE0B63E771E087EF92
:100FB00093E00E94140B66E671E02DC040E051EE14
:100FC00060E070E08E819F810E94370268EE73E0DE
:100FD00080E090E00E94CE0B60E671E087EF93E046
:100FE0000E94140B63E571E016C040E052EC61E032
:100FF00070E08E819F810E94370268EE73E080E08E
:1010000090E00E94CE0B6CE471E087EF93E00E94C9
:10101000140B6FE371E08E819F810E94C70A68EE16
:1010200073E080E090E00E94CE0B40E855E260E083
:1010300070E08E819F810E94370268EE73E080E04D
:1010400090E00E94CE0B35E0E32E05E312E024E6AB
:1010500030E044EF51E065EE71E0C6010E9480058A
:1010600068EE73E080E090E00E94CE0B48EE53E023
:1010700068EE73E0C6010E945A058FEFA81AB80AFD
:1010800098E0A916B10409F006CF6AEF70E087EF87
:1010900093E00E94140B61E088E00E94820B60EBF9
:1010A00074E080E090E00E94CE0B60E088E00E9457
:1010B000820B60E177E280E090E00E94CE0BB4C04A
:1010C000F4011082FF2009F48FC042E350E062E394
:1010D00070E0C6010E945A05FF24F394F401F082E7
:1010E00085E0E82E05E312E022E330E048EE53E02D
:1010F0006CEF71E0C6010E94800522E330E044EF0E
:1011000051E061E072E0C6010E948005F401F082C6
:10111000980144EF51E068EE70E0C6010E94350E80
:10112000980144EF51E06EED70E0C6010E94350E6B
:10113000980144EF51E064ED70E0C6010E94350E65
:10114000F401F08292E0E92E22E330E048EE53E031
:1011500066E072E0C6010E9480052AE0E22E02E10C
:1011600012E028EE33E048EE53E069E172E0C60198
:101170000E948005F401108225E332E048EE53E03E
:1011800067EC70E0C6010E94350E20E332E044EFC8
:1011900051E06CEB70E0C6010E94350EF401F08264
:1011A00068E372E08E819F810E94280B40E050E04E
:1011B000BA018E819F810E94B40D68EE71E08E812C
:1011C0009F810E94280B64EF71E080E090E00E9414
:1011D000CE0BF401108282E090E0EC81FD819183DE
:1011E000808381E090E029C040E052EC61E070E053
:1011F0008E819F810E94370268EE73E080E090E06C
:101200000E94CE0B62EF70E08E819F810E94C70A20
:10121000B301A2018E819F810E94B40D68EE71E03E
:101220008E819F810E94280B80E090E006C0F981AA
:10123000F11146CFF401108248CF27960FB6F894EB
:10124000DEBF0FBECDBFDF91CF911F910F91FF90F9
:10125000EF90DF90CF90BF90AF909F908F907F9056
:101260006F905F904F903F902F900895E0917C0396
:10127000F0917D03309729F0109259031092580392
:1012800009940895CF93DF93AC01E091F503F091B9
:10129000F6033097F1F090915B0380915A03981711
:1012A000C0F090E0292F30E02617370754F4D90119
:1012B000A45ABC4FEA01C20FD31F88818C939F5F51
:1012C000F1CF10925B0360935A03CB01DF91CF9172
:1012D0000994DF91CF910895CF92DF92EF92FF9220
:1012E0000F931F93CF93DF936C017A018B01C0E0C2
:1012F000D0E0CE15DF0589F0D8016D918D01D601C2
:10130000ED91FC910190F081E02DC6010995892BAA
:1013100011F47E0102C02196ECCFC701DF91CF917D
:101320001F910F91FF90EF90DF90CF900895FC01F7
:10133000538D448D252F30E0842F90E0821B930B3A
:10134000541710F0CF96089501970895FC01918DE0
:10135000828D981761F0828DDF01A80FB11D5D9617
:101360008C91928D9F5F9F73928F90E008958FEF85
:101370009FEF0895FC01918D828D981731F0828D39
:10138000E80FF11D858D90E008958FEF9FEF089590
:10139000FC01918D228D892F90E0805C9F4F821BF4
:1013A00091098F739927089587EF93E00E94C809E8
:1013B00021E0892B09F420E0822F0895FC01848D1F
:1013C000DF01A80FB11DA35ABF4F2C91848D90E06F
:1013D00001968F739927848FA689B7892C93A0894A
:1013E000B1898C9180648C93938D848D981306C001
:1013F0000288F389E02D80818F7D80830895EF92AC
:10140000FF920F931F93CF93DF93EC0181E0888FBE
:101410009B8D8C8D981305C0E889F989808185FDA5
:1014200024C0F62E0B8D10E00F5F1F4F0F73112796
:10143000E02E8C8DE8120CC00FB607FCFACFE889BD
:10144000F989808185FFF5CFCE010E94DE09F1CFB9
:101450008B8DFE01E80FF11DE35AFF4FF0820B8FD9
:10146000EA89FB898081806207C0EE89FF896083F9
:10147000E889F98980818064808381E090E0DF9150
:10148000CF911F910F91FF90EF900895CF93DF932D
:10149000EC01888D8823C9F0EA89FB89808185FD6C
:1014A00005C0A889B9898C9186FD0FC00FB607FCCD
:1014B000F5CF808185FFF2CFA889B9898C9185FF0E
:1014C000EDCFCE010E94DE09E7CFDF91CF910895E5
:1014D00080E090E0892B29F00E94D40981110C94BE
:1014E000000008953FB7F8948091EA039091EB03D0
:1014F000A091EC03B091ED0326B5A89B05C02F3F4A
:1015000019F00196A11DB11D3FBFBA2FA92F982F29
:101510008827820F911DA11DB11DBC01CD0142E0A4
:10152000660F771F881F991F4A95D1F7089585ED9B
:101530008093BC008091BC0084FDFCCF1092F0032E
:1015400008950895E0915B0380915A03E81730F401
:10155000F0E0E45AFC4F808190E008958FEF9FEF18
:10156000089590915B0380915A03981750F4E92FE6
:10157000F0E0E45AFC4F208130E09F5F90935B03E2
:1015800002C02FEF3FEFC90108950E943C11EF9276
:10159000FF920F931F93CF93DF938C017B01C0E0E9
:1015A000D0E0F701EC0FFD1F6491662361F0D801D4
:1015B000ED91FC910190F081E02DC8010995892BF6
:1015C00011F02196EECFCE01DF91CF911F910F91B7
:1015D000FF90EF9008956115710579F0FB0101907E
:1015E0000020E9F73197AF01461B570BDC01ED9165
:1015F000FC910280F381E02D099480E090E0089551
:101600000F931F93CF93DF93EC010E94EB0A8C01A1
:101610006FE472E0CE010E94EB0A800F911FDF9110
:10162000CF911F910F9108950F931F93CF93DF9345
:10163000EC010E94C70A8C016FE472E0CE010E94A7
:10164000EB0A800F911FDF91CF911F910F910895A9
:101650000C94EB0A1F920F920FB60F9211242F9346
:101660003F934F935F936F937F938F939F93AF932A
:10167000BF93EF93FF9387EF93E00E94DE09FF9102
:10168000EF91BF91AF919F918F917F916F915F91FA
:101690004F913F912F910F900FBE0F901F90189573
:1016A0001F920F920FB60F9211242F938F939F9337
:1016B000EF93FF93E0910704F09108048081E0919B
:1016C0000D04F0910E0482FD12C0908180911004EF
:1016D0008F5F8F7320911104821751F0E0911004F5
:1016E000F0E0E950FC4F958F8093100401C0808199
:1016F000FF91EF919F918F912F910F900FBE0F90BF
:101700001F90189590E0FC01EC5CFD4F3491FC01BA
:10171000E658FD4F2491FC01EA59FD4FE491EE2378
:1017200009F43BC0332339F1333091F038F43130D0
:10173000A9F0323001F584B58F7D12C0373091F0B9
:101740003830A1F03430B9F4809180008F7D03C02F
:10175000809180008F77809380000DC084B58F7753
:1017600084BD09C08091B0008F7703C08091B00024
:101770008F7D8093B000F0E0EE0FFF1FE85BFD4F20
:10178000A591B4918FB7F894EC91611103C02095A5
:101790002E2301C02E2B2C938FBF08958F929F92E2
:1017A000AF92BF92CF92DF92EF92FF926B017C01DA
:1017B0000E94720A4B015C01C114D104E104F104DE
:1017C000F1F00E94720ADC01CB0188199909AA097B
:1017D000BB09883E9340A105B10570F321E0C21A10
:1017E000D108E108F10888EE880E83E0981EA11C5C
:1017F000B11CC114D104E104F10419F7DDCFFF904D
:10180000EF90DF90CF90BF90AF909F908F90089512
:101810002FB7F8946091E6037091E7038091E80395
:101820009091E9032FBF08951F920F920FB60F9268
:1018300011242F933F938F939F93AF93BF938091E6
:10184000E6039091E703A091E803B091E90330919A
:10185000E50323E0230F2D3720F40196A11DB11DD0
:1018600005C026E8230F0296A11DB11D2093E503B4
:101870008093E6039093E703A093E803B093E90312
:101880008091EA039091EB03A091EC03B091ED03FA
:101890000196A11DB11D8093EA039093EB03A093E1
:1018A000EC03B093ED03BF91AF919F918F913F9166
:1018B0002F910F900FBE0F901F9018951F920F92AF
:1018C0000FB60F9211242F933F934F935F936F9313
:1018D0007F938F939F93AF93BF93EF93FF938091E9
:1018E000B900887F803609F49CC068F5883209F415
:1018F0005BC090F4803109F454C038F4882309F4B3
:10190000F6C0883009F44DC0F6C0883109F44CC0E7
:10191000803209F45DC0EFC0803409F468C048F437
:10192000803309F455C0883309F0E5C08093C103C2
:10193000D8C0803509F44FC0883509F45DC08834BB
:1019400009F0D9C0D6C0883909F4C7C0A8F48837CF
:1019500009F467C038F4883609F463C0803709F4A5
:1019600060C0C9C0883809F4B8C0803909F45FC0C4
:10197000803809F0C0C05BC0803B09F486C038F4F1
:10198000803A09F466C0883A09F47FC0B4C0803C4C
:1019900009F4A7C0883C09F4A4C0883B09F48AC0B4
:1019A000AAC08091E40310C09091E3038091E20308
:1019B000981770F5E091E30381E08E0F8093E303C5
:1019C000F0E0EE53FC4F80818093BB0085EC86C035
:1019D0008093C1038EC0E091E30381E08E0F80937A
:1019E000E3038091BB00F0E0EE53FC4F80839091C5
:1019F000E3038091E2036EC0E091E30381E08E0F88
:101A00008093E3038091BB00F0E0EE53FC4F8083B2
:101A10008091EF0381116DC081E08093EE0384EA31
:101A200061C083E08093F0031092C003CFCF809118
:101A3000C003803208F051C0E091C00381E08E0FF6
:101A40008093C0038091BB00F0E0E056FC4F8083A0
:101A5000BDCF85EC8093BC001092F0038091C00351
:101A6000803230F4E091C003F0E0E056FC4F108289
:101A70006091C00370E0E091F103F091F20380EA1D
:101A800093E009951092C00336C084E08093F00380
:101A900010929F0310929E03E091F303F091F403E0
:101AA000099580919E03811105C081E080939E037A
:101AB00010927E03E0919F0381E08E0F80939F033D
:101AC000F0E0E258FC4F80818093BB0090919F032F
:101AD00080919E03981708F479CF85E88093BC0025
:101AE0000AC085EC8093BC001092F00304C01092F1
:101AF000C1030E94970AFF91EF91BF91AF919F910F
:101B00008F917F916F915F914F913F912F910F90A6
:101B10000FBE0F901F90189540919E03262F30E026
:101B2000240F311D21323105DCF42091F0032430E3
:101B3000C9F4FC0180E090E0861758F430919E03D0
:101B40002191DC01A258BC4FA30FB11D2C9301962B
:101B5000F3CF80919E03680F60939E0380E0089509
:101B600081E0089582E008954F925F926F927F9294
:101B70008F929F92AF92BF92CF92DF92EF92FF929D
:101B80000F931F93CF93DF93CDB7DEB7A1970FB617
:101B9000F894DEBF0FBECDBF8C016A017B0177FFD9
:101BA0002FC0DC01ED91FC910190F081E02D6DE200
:101BB00009955C0122273327A9012C193D094E09FB
:101BC0005F0919A2FE01B1967F019AE0492E512CBE
:101BD000612C712CCA01B901A30192010E94E1108C
:101BE000605DD7016E937D012115310541055105D9
:101BF00089F7BD01C8010E94EB0A8A0D9B1D1EC01A
:101C00009A01AB0119A2FE01B1967F018AE0882EEC
:101C1000912CA12CB12CCA01B901A50194010E94FB
:101C2000E110605DD7016E937D01211531054105FD
:101C3000510589F7BD01C8010E94EB0AA1960FB6B4
:101C4000F894DEBF0FBECDBFDF91CF911F910F91F2
:101C5000FF90EF90DF90CF90BF90AF909F908F90CC
:101C60007F906F905F904F9008959F92AF92BF9238
:101C7000CF92DF92EF92FF920F931F93CF93DF9358
:101C8000EC018B017A016901912C5C018CEDA80EAD
:101C9000B11CB801C5010E94140B42E350E0B7012A
:101CA000CE010E945A05813039F4B601CE010E945E
:101CB0006104882311F00CC08FEF939495E099167E
:101CC00041F064EF71E080E090E00E94CE0BE1CF44
:101CD00081E0DF91CF911F910F91FF90EF90DF9006
:101CE000CF90BF90AF909F900895CF93DF93EA017C
:101CF000109274059093760580937505709378051E
:101D0000609377050E94080C6093790570937A05BB
:101D100080937B0590937C051092A40484EA94E060
:101D200090937205809371051092730582EA94E096
:101D30000E94A2048823D1F3813049F4BE0182EAD3
:101D400094E00E946104811104C083E003C084E038
:101D500001C082E0DF91CF910895E0EAF4E08DE4E4
:101D600091E09183808385E491E09383828383E390
:101D700091E090937F0580937E058EE795E00C942B
:101D80002102789484B5826084BD84B5816084BD6D
:101D900085B5826085BD85B5816085BD80916E0009
:101DA000816080936E00109281008091810082603A
:101DB0008093810080918100816080938100809177
:101DC00080008160809380008091B1008460809366
:101DD000B1008091B00081608093B00080917A0062
:101DE000846080937A0080917A00826080937A0088
:101DF00080917A00816080937A0080917A00806877
:101E000080937A001092C100E0910704F0910804D9
:101E100082E08083E0910304F09104041082E09159
:101E20000504F09106048FEC808310920F04E0917A
:101E30000B04F0910C0486E08083E0910904F0919A
:101E40000A04808180618083E0910904F0910A0492
:101E5000808188608083E0910904F0910A04808188
:101E600080688083E0910904F0910A0480818F7D6D
:101E7000808340E659E060E070E082EA94E00E94EE
:101E8000DA05EC0182E88093BA0086E399E090934A
:101E9000F4038093F30382E499E09093F203809338
:101EA000F10310925B0310925A031092590310929F
:101EB00058031092F00381E08093EF031092EE0339
:101EC00061E082E10E94820B61E083E10E94820B6B
:101ED0009091B9009E7F9093B9009091B9009D7F39
:101EE0009093B90088E48093B80085E48093BC00A7
:101EF0008DE493E09093F6038093F503CD2B19F0D6
:101F000062E572E002C063E672E087EF93E00E9450
:101F1000000B0E94680AFDCFCF93DF931092FA0363
:101F20001092F90348EE53E060E070E04093FB0349
:101F30005093FC036093FD037093FE038FE091E0E8
:101F40009093F8038093F70385EC90E0909304045A
:101F50008093030484EC90E090930604809305043E
:101F600080EC90E0909308048093070481EC90E06B
:101F700090930A048093090482EC90E090930C04FF
:101F800080930B0486EC90E090930E0480930D04F4
:101F90001092100410921104109212041092130463
:101FA00010929704109296044093980450939904C9
:101FB00060939A0470939B0481E291E0909395045E
:101FC0008093940483E090E09093AB058093AA05FE
:101FD0009093AD058093AC059093AF058093AE05CB
:101FE0009093B1058093B0059093A9058093A805BF
:101FF00085E491E09093A3048093A20481E090E0B3
:1020000090936E0580936D05109281051092800566
:1020100040938205509383056093840570938505F2
:1020200083E391E090937F0580937E051092950560
:1020300010929405109297051092960510929905AA
:102040001092980510929B0510929A0560919C053C
:102050006E7F6D7F60939C056695617081E0682757
:1020600083E00E94820BEDE7F2E02491E9E6F2E0E2
:102070008491882399F090E0880F991FFC01EE5A13
:10208000FD4FA591B491FC01E85BFD4F85919491C2
:102090008FB7F894EC91E22BEC938FBFEDE7F2E071
:1020A000E491E0938E05E9E6F2E0E491F0E0EE0FD2
:1020B000FF1FE85BFD4F859194919093900580936D
:1020C0008F05ECE7F2E02491E8E6F2E084918823C2
:1020D000C1F090E0880F991FFC01EE5AFD4FC591A9
:1020E000D491FC01E85BFD4FA591B4919FB7F894A2
:1020F0008881E22FE0958E2388838C91E823EC93EE
:102100009FBF80919C0581FD04C061E082E00E9438
:10211000820B82E080938A05ECE7F2E0E491E093A1
:102120008B05E8E6F2E0E491F0E0EE0FFF1FE45AE1
:10213000FD4F8591949190938D0580938C058EE74A
:1021400095E090939E0580939D0580E197E2A0E045
:10215000B0E080939F059093A005A093A105B09354
:10216000A20581E08093A7058DE491E09093A104FE
:102170008093A00487E591E09093A3048093A20448
:1021800083E090E09093B3058093B2059093B505FA
:102190008093B405DF91CF91089597FB072E16F435
:1021A000009407D077FD09D00E94281107FC05D0C4
:1021B0003EF4909581959F4F0895709561957F4F5E
:1021C0000895A1E21A2EAA1BBB1BFD010DC0AA1F78
:1021D000BB1FEE1FFF1FA217B307E407F50720F090
:1021E000A21BB30BE40BF50B661F771F881F991F0B
:1021F0001A9469F760957095809590959B01AC0154
:10220000BD01CF010895052E97FB1EF400940E9496
:102210001A1157FD07D00E94E11007FC03D04EF4BD
:102220000C941A1150954095309521953F4F4F4F82
:102230005F4F089590958095709561957F4F8F4F72
:102240009F4F0895EE0FFF1F0590F491E02D099424
:10225000AA1BBB1B51E107C0AA1FBB1FA617B707CC
:1022600010F0A61BB70B881F991F5A95A9F78095E8
:102270009095BC01CD01089581E090E0F8940C9414
:102280005B11FB0151915523A9F0BF01DC014D9178
:1022900045174111E1F759F4CD010190002049F0B3
:1022A0004D9140154111C9F3FB014111EFCF81E080
:1022B00090E00197089511E0C8E4D1E004C0FE0168
:1022C0000E9422112196C934D107C9F7F894FFCF93
:1022D000303737383833313931370000000000FFEC
:1022E000096C099709460AC809A609BA090000003D
:1022F000003C032803E402A10A7301B10AA20A0008
:1023000000000094016C09E4029301E80100027BE3
:102310000100000000DA05020000000000F402E7FE
:10232000020000FEFF0000DA0544454255473A53DB
:102330004D5320544553540044454255473A3E00BE
:102340002B434D4753004154543A20005249433ADD
:1023500020005249433A204E4F20535452494E4791
:10236000205243564400446F6E27742075736520D5
:1023700062617564726174652031313532303020AC
:102380007769746820536F6674776172652053654E
:102390007269616C2E0A4175746F6D617469636155
:1023A0006C6C79206368616E6765642061742039A4
:1023B0003630302E004154000D0044423A4F4B203D
:1023C00042520044423A4E4F204252004154264667
:1023D00000415445300041542B434E4D493D322C71
:1023E00030002B43504D533A0041542B43504D5332
:1023F0003D22534D222C22534D222C22534D22009C
:1024000053485554204F4B004154450044423A4EE6
:102410004F20524553500044423A454C5345000D1D
:102420000A000A737461747573203A20524541445E
:10243000590A000A737461747573203A2049444C38
:04244000450A000049
:00000001FF
